:020000021000EC
:10009400411122C41384C100084406C609C5EFD027
:1000A400407723240400B24022444101828041115C
:1000B400114506C6EF00B00BB7A702009387874926
:1000C4004566B7A502001CC11306A6A69385C542C2
:1000D400EF10800C4111114506C6EF005009B7A777
:1000E40002009387C73F4566B7A502001CC11306EB
:1000F40086879385853EEF10200A4111114506C677
:10010400EF00F006B7A702009387075C4566B7A522
:1001140002001CC1130626739385C55AEF10C0074D
:100124004111114506C6EF009004B7A7020093875A
:10013400C75E4566B7A502001CC1130626769385E3
:10014400855DEF1060054111114506C6EF003002D0
:10015400B7A702009387C7614566B7A502001CC113
:100164001306267993858560EF10000301112AC6D2
:10017400214522CC06CE26CAEF00607FB2452A84F0
:10018400EF60C0215966B7B50200130606FB9385DC
:10019400C5332285EF104000AA842285EF00B00009
:1001A4002685EFC0004601112AC6214522CC06CE81
:1001B40026CAEF00C07BB2452A84EF6080215966CD
:1001C400B7B50200130646FD9385C5352285EF00B9
:1001D400B07CAA842285EF00007D2685EFC06042B2
:1001E40001112AC6214522CC06CE26CAEF0020786A
:1001F400B2452A84EF60C01F5966B7B502001306E2
:1002040026FE938505382285EF001079AA8422857D
:10021400EF0060792685EFC0C03E01112AC6214552
:1002240022CC06CE26CAEF008074B2452A84EF6041
:10023400001E5966B7B50200130606FF9385053AFA
:100244002285EF007075AA842285EF00C07526858B
:10025400EFC0203B01112AC6214522CC06CE26CA76
:10026400EF00E070B2452A84EF60401C5966B7B5D0
:1002740002001306E6FF9385053C2285EF00D0714A
:10028400AA842285EF0020722685EFC080370111F1
:100294002AC6214522CC06CE26CAEF00406DB245BF
:1002A4002A84EF60801A5966B7B502001306C600A7
:1002B4009385053E2285EF00306EAA842285EF00E7
:1002C400806E2685EFC0E03301112AC6214522CC79
:1002D40006CE26CA692DB2452A84EF60601A596693
:1002E400B7B50200130606039385C53F2285EF00C8
:1002F400B06AAA842285452D2685EFC0803001117D
:100304002AC6214522CC06CE26CA9525B2452A8482
:10031400EF60E0185966B7B502001306E60393854B
:10032400C5412285EF005067AA842285AD2D26851C
:10033400EFC0202D01112AC6214522CC06CE26CAA3
:100344003D25B2452A84EF6060175966B7B50200AF
:100354001306C6049385C5432285EF00F063AA847F
:10036400228591252685EFC0C029011122CC26CAF9
:100374004AC84EC652C406CE2E89B2893684BA847F
:100384003E8A01CB6360E60A3A86B6854A85EF80E9
:100394007051631A0A00F2406244D2444249B2499D
:1003A400224A05618280E38834FF5286B30539010D
:1003B40033059900EF80104FE3FF99FCB30739012F
:1003C4003307940063EEE700A2856244F240B24929
:1003D400224A26864A85D244424905616F80904C60
:1003E4006364F4023304244133043441269426869E
:1003F400B30589004A856244F240D2444249B24975
:10040400224A05616F80D048B38987404E86A28511
:100414004A85EF80304933863441B305990033056A
:100424003901D1BFD9F359BF4111814522C406C650
:100434002A84EFF0606C83A781FD91C382972285A3
:10044400EF9081095D71A6C2379502009387C100C0
:10045400A2C452DC56DA86C6CAC04EDE130545561F
:1004640023A2070023A4070023A60700EFD0202C13
:10047400BD473EC8B7970200938787573ECAA14736
:100484003ECCB7970200938787583ECEA5473ED20D
:10049400B7970200938747593ED491472A8402D0E4
:1004A4003ED69384C100130AA003930AE00231E00C
:1004B400B257130700046354F7009307000402546F
:1004C40011E019441304C4023304F4020A04C0C43E
:1004D40001C82285EFD0603388C459ED23A60400F7
:1004E400B640264496440649F259625AD25A61618A
:1004F4008280834704006393470105043D47A28635
:100504003D468145080821230DED8347F400639A95
:10051400570341041309810183290900A2868145F7
:100524004E874E864A85E52109E9B307340103C79E
:1005340007009307D003630DF70031091C18E31D6E
:10054400F9FC22859305A003EFE0D0222A8485B725
:1005540013851900229501466C00EFD0D05B32441C
:100564001307A003834704006383E700F9FBE34A0E
:1005740005FC2324A900F1B7C8C000C1232205004B
:1005840085B79307000099C7374502001305E5CCEA
:100594006FF060638280973102009381E1F11385EB
:1005A40041FB1386013A098E8145EFF0601617F579
:1005B40000001305856119C5173501001305257160
:1005C400EFF06060EFF0E00002454C000146692A5C
:1005D400A1BD411122C483C701FF06C691EFF5678F
:1005E4009387E76399C737D502001305C50AEFD08F
:1005F400C00485472388F1FEB24022444101828031
:10060400F5679387075789CB37D50200938541FF58
:100614001305C50A6FC090758280011122CE0010A7
:100624002326A4FE2324B4FE2322C4FE81473E8550
:10063400724405618280011122CE00102326A4FE9B
:1006440081473E85724405618280011122CE0010EB
:100654002326A4FE81473E857244056182800111F0
:1006640022CE00102326A4FE81473E8572440561F4
:100674008280011122CE00102326A4FE2324B4FE7E
:100684002322C4FE2320D4FE81473E8572440561A3
:100694008280011122CE00102326A4FE2324B4FE5E
:1006A40081473E85724405618280797122D60018A3
:1006B400232EA4FC232CB4FC232AC4FC232604FEEE
:1006C40015A0832784FD13871700232CE4FC370728
:1006D400004083C707002300F7008327C4FE850773
:1006E4002326F4FE0327C4FE832744FDE34BF7FCD3
:1006F400832744FD3E85325445618280411122C6E0
:10070400000881473E85324441018280011122CE96
:1007140000102326A4FE01007244056182807971D1
:1007240022D60018232EA4FC232604FE0DA0832722
:10073400C4FE0327C4FD3E97B707004003470700E4
:100744002380E7008327C4FE85072326F4FE83273E
:10075400C4FE0327C4FDBA9783C70700E9FB010061
:100764000100325445618280011106CE22CC001072
:100774002545DD28AA872324F4FE05455D20AA87A4
:100784002322F4FEB75700408D072320F4FE2326CE
:1007940004FE89A08327C4FE032784FEBA97032797
:1007A400C4FE1377F70F2380E7008327C4FE0327D3
:1007B40084FEBA9783C707003E868325C4FEB79795
:1007C40002001385074EEFE0C02A8327C4FE850785
:1007D4002326F4FE0327C4FEA147E3DDE7FA2546FA
:1007E400832584FE032504FEEFE0107D832704FEA9
:1007F40003C70700832744FE2380E700832744FEC2
:1008040083C70700BE85B79702001385474FEFE003
:1008140040267300000081473E85F2406244056132
:100824008280411122C406C62A8411E1054422852E
:10083400EFC0B07D09C5B240224441018280EF007F
:10084400701F0DE111452522B7A702009387C73F0A
:100854004566B7A502001CC1130686879385853EAD
:10086400EF0090130295E1B76DBF379502001305B1
:1008740045508280B7A702009387C73F1CC1DDA201
:10088400411122C406C62A84F53722852244B24087
:100894009145410109A06F50005A1388C100832774
:1008A4004800032705FF130605FF9385C10089C788
:1008B400B306E60063F6F600232AF5FED0C1828073
:1008C400CC436394D7049C43232AB5FEBA972328C8
:1008D400F5FE2322C800828093854700C28703A8BF
:1008E4004700630B0800E369D8FE6397060103A879
:1008F4000600D4424297D4C39C4194433388D70022
:1009040063180601BA9694C3828093850101C1BF1E
:10091400DC432328E5FE232AF5FE9C41D0C38280D4
:100924004105A1476373F50021453D051387C100C7
:10093400937705FF48431387010115C114415041C2
:1009440063E0F602B385F6401D48637FB800B30642
:10095400F500D0C208438CC21CC114C34105828077
:10096400130745003285D1BF14C1B286FDB74111CA
:1009740022C413040506228506C6EFC01069AA879F
:1009840019E52285713FAA8719E1EF002075130646
:10099400000681453E85EFE0B057B240224413057E
:1009A4000506410182809387C1009847DC471305FF
:1009B40005FABA976375F5006373A700F9BD6FC0B4
:1009C400506541111305000506C6EFC01064AA87DF
:1009D40001E913050005A937AA8719E1EF000070A2
:1009E4001306000581453E85EFE09052B240410177
:1009F40082801387C10014475847AA8736976375C6
:100A0400E50063F3A60051BD3E856FC09060AE87DC
:100A1400B6851441411106C622C426C263FDF60000
:100A2400B7950200379502003E869385455113051C
:100A34000553EF00D02E3384F640BA8463738600E6
:100A44003284268663739400228611C648413E95FB
:100A5400EFE0004D19E133059440B2402244924442
:100A64004101828082808280379502001305055AF5
:100A74008280379502001305055B8280914521BD74
:100A8400914511BD8280914539B58280914521B54A
:100A9400828082800147814683470500050513F65D
:100AA400F707E2073316D600E187518F9D06E3C5A9
:100AB40007FE98C1828081470147834605000505EA
:100AC40013F6F6073316E600D18F13968601618676
:100AD4001D07E34406FE7D466369E60093F60604BB
:100AE40089C6FD563397E600D98F9CC182801C428B
:100AF400797122D43ECE9C4126D22EC69C4706D67E
:100B0400AA842E8532848297B24501C5F2479C435C
:100B14003ECE9C40854670089C4B2685829719C121
:100B2400F2471CC0B25022549254456182807971BC
:100B340026D24AD006D622D44ECE93070005328957
:100B4400B684631FF5001305360071991C41110525
:100B5400B25022549CC002599254F2494561828099
:100B64009377F5003147AA896366F70A37A702002D
:100B74008A071307C74CBA979C432E8482876C005C
:100B84003285093FB247E9D713F70907C146631312
:100B9400D7004A84E20993D98941A297E3DA09FA92
:100BA4009C437DB76C0032853937E9BF8347160013
:100BB40003470600A207D98F13052900E9B7834725
:100BC400160003470600A207D98FC207C187EDB7F5
:100BD400834716000347060013054600A207D98F72
:100BE4000347260042075D8F83473600E207D98F0B
:100BF40059BF834716000347060013058600A20762
:100C0400D98F0347260042075D8F83473600E207EA
:100C1400D98F95BFEFC0F02F011106CEAA870345E7
:100C240045011307F00F630FE5029376750009473A
:100C3400638CE6026366D700114791CAEFC0702D3A
:100C44000D476385E60211462147E399C6FEB38545
:100C5400E502D04774000D8E8C47D13DF2403245F9
:100C6400056182800147E5B70947D5B71147C5B784
:100C7400797122D4404593C6F6FF26D24AD006D6CF
:100C8400AA842E8932C636946C0822852135F24511
:100C94002A8489CD268549377000CA85893D6DD55A
:100CA400B250225492540259456182800145CDBF0D
:100CB4001307F00FAA87630DE50293F707071307DD
:100CC40000032E85638AE702636CF70013070002B2
:100CD4006382E702637EF700411106C6EFC070230A
:100CE40013070004638CE70013070005E396E7FE8F
:100CF400014582806FB0805C6FB0E05B6FB0E059FB
:100D0400011122CC2E84AA85228506CE32C636C491
:100D14004537AA8522856244A2463246F2400561DF
:100D240039B5011122CC26CA4AC806CEAA842E8916
:100D34003284814701C5EFB04056AA871CC0834561
:100D440009001307F00F130619006387E5049306DF
:100D54004400268575372A86034706009306F00F5C
:100D640013051600230AE40081476306D7006C00CC
:100D74001533B247AA975CC4834705006C00050588
:100D8400A30AF400013BB247F240D244AA971CC81C
:100D940062444249056182805CC07DBF19713EC4D2
:100DA40086DEA2DCA6DACAD8CED6D2D4D6D2DAD09F
:100DB400DECEE2CCE6CAEAC8EEC602C802CA85475D
:100DC4006313F52437DAD4BC130A0A50B7B7B1B8A1
:100DD4009387C7AB329ABE963336CA009947AE8B17
:100DE4003A843309D600639DF502631B09026369E3
:100DF4004503832947FF832487FE032C07FF854788
:100E0400638309008D4793FB8B0063970B00631585
:100E1400090005476374471B0547639BE7187D2C4E
:100E24002245EFB020472A8C0DE12145F650665447
:100E3400D6544659B659265A965A065BF64B664C12
:100E4400D64C464DB64D09618280AA8522453010A4
:100E5400C93DA2452AC60345C103993D2AD8224566
:100E64004C08EFB0E041D2473246AA8999E393098E
:100E7400F5FF625B636E660381448149014B8547DC
:100E840013F71B0049D30947E381E7FA631009020A
:100E9400854763ED4701C247130404F824D423268D
:100EA4006407232884073CDC232A34071945BDBF83
:100EB4008345D103340801452EC69935B2452A86A7
:100EC40074080145353DB2452A86141001450D3D8F
:100ED4004C10C936A25762472A86BA9763E2F908CA
:100EE4007247BA97E3F7F9F8825963840900B25755
:100EF400BE999257A5C3E38A09F293FD8B006393CD
:100F04000D06631409060547636147078346040019
:100F140013070402858A99C2032704FD832A07FB69
:100F24003AC8FD173E9B014D6C085A8569360C1072
:100F3400AA8C5136F244BDC8635C9002A685281081
:100F4400E13919C563850A041008D6854D3621C1D7
:100F54008D473DB7E38B09EC8144014B89470DB7BD
:100F64005A8601BF938A01F26DBF938A81F255BFFD
:100F740063840A0263920D0263100902854763EDDC
:100F840047014246A686D6852810DD3171D18254A8
:100F9400ADCC338B9C0049BFD25713C5F4FF4C1022
:100FA4003E95EFF03FAF9257FDF35DB7054DC5B7E2
:100FB40063DB0402A12AEF40906C95B56395E700CA
:100FC4002285EF40906763D0040222453010E28509
:100FD400893B0349C103A2454A85D939A2454A85BB
:100FE400C139232AA4FE22452286A945EFB0A023B5
:100FF40022452686AD45EFB000232245CE85EFB0CD
:1010040000291D4525B50D4515B5E3000DE2B9B719
:101014005D71A2C4CAC02A844EDE86C6A6C2EF4051
:101024001066130504F87C59832905072055032904
:10103400C505284D3ED07D20EF407064EF40F0732D
:101044001C4103C7070393840705058B11C384431D
:101054003008CE850145F13183A504FBA28626869E
:101064002808393111C99D222AC6EF407068EF4023
:1010740030683245EFB0E058A28637A4020001463A
:101084009305C4422808ED3619CD1145EFF03F8E83
:10109400B7A702009387874945661CC11306A6A615
:1010A4009305C442D5284A850920411106C60295F4
:1010B400EFC02066EF40B05CEFC0A06501E5456578
:1010C4001305A5419387C1F90F00500F2FA5A70C55
:1010D400828003A5C1F90F00F00F8280411106C67A
:1010E400CD3FE137411106C60295CD3F01E5456587
:1010F4001305050E938741F90F00500F2FA5A70C78
:10110400828003A541F90F00F00F8280411106C6C9
:10111400CD3FC93F011106CE854763F5A70003A55E
:10112400C5FD61377D57938605FC0F00500FAFA7AF
:10113400E604FD1789EF83A745FD1385050281C7E2
:101144002AC682973245F24005616FF0DF85F2408E
:1011540005618280411106C622C426C2232005FAF5
:10116400930405F88CD8D0D82A84613F88DC95375D
:1011740003A781EA83A7C1EAC8DC2320E4FE232273
:10118400F4FEB240130504FAC5672244938787111D
:10119400BCD4924441018280011106CE22CC2EC6D9
:1011A4002A8432C4EF40D05D5C412246B2458507B3
:1011B4005CC1228545378547130405041CC122857B
:1011C400EFB0601B2285EF40904B093F411106C6EA
:1011D40022C4EF40F05A58411C41050758C195CF2D
:1011E400945BD05B37D7D4BC13070750B7B5B1B8FD
:1011F4009385C5AB3697B336D7002E96B29681E663
:10120400854663FDE6002320050013840703228539
:10121400EFB0604D2285EF409046C935D84B330777
:10122400E040D8CBDDB7938741FB0F00500F2FA5CB
:10123400A70C828003A541FB0F00F00F8280B7A7A3
:1012440002009387C7531CC175A3411122C406C66B
:101254002A84F53722852244B240B14541016FF01A
:101264008FE36308B502834605001307A002814794
:101274006382E60283C70500411106C66393E70053
:101284008505EFE08075B240933715003E85410136
:10129400828085473E858280797162C4032C450033
:1012A4004AD02E89CC425EC6AA8B628522D426D22D
:1012B4004ECE52CC56CA5AC806D6B289B68A3A8499
:1012C4003E8B428AC684713F15CD80C023A234016F
:1012D400634509024A94854763138A009947DCC42D
:1012E400B250225492540259F249624AD24A424BB1
:1012F400B24B224C014545618280F957E312F9FE55
:101304008547F1BF631A440183254B006285913FF1
:1013140001C523A43401E9B703A58B002287225415
:101324001C41B250B24B03A3C701224CA688528879
:101334009254624ADA87D686424BD24A4E86CA858E
:10134400F249025945610283011122CC26CA06CE14
:101354002A84AE84631CC700CC4248413AC632C4D6
:1013640036C2013792462246324711E908446244A4
:10137400F2401C41A685D2449C5305618287F24009
:101384006244D244194505618280011122CC26CAE7
:101394004AC84EC606CEAA892E84B28436894D29FF
:1013A40019ED03A58900A28562441C41F240B249AB
:1013B4009C4FCA8626864249D24405618287F24000
:1013C4006244D2444249B249056182808280014527
:1013D400828001458280A1456FF0EFCB5C41CC4116
:1013E4006388B70283C607001307A002014563831D
:1013F400E602411106C683C605006393E60085052F
:101404003E85EFE0805DB2401335150041018280D6
:1014140005458280828003C781FB797122D406D678
:1014240026D24AD001CF83A7C1FA3795020013050B
:10143400455CCC47EFD04024EFC0A02D0547238C5A
:10144400E1FAEF40503451C944419307A00203C765
:1014540004006313F7008504FD57740801468145B1
:1014640026853ECEEF40B01083A7C1FA2A8937956E
:101474000200CC471305455EEFD00020F247A9EBEC
:1014840083A7C1FA4A85CC47EFD0001F83A7C1FACE
:101494003795020013058561CC47EFD0E01DF24774
:1014A40081E74A85EFC0E03615338547639EF5042E
:1014B400EF40F01C1C419C47829783A7C1FAAA8481
:1014C40037950200CC471305C564EFD0E01A31A864
:1014D40083A7C1FA2685CC4745BF83A7C1FA3795B0
:1014E40002001305C561CC47B1B783A7C1FA2685AD
:1014F400CC47EFD0601883A7C1FA2945CC47EFD079
:10150400400DEF40F01E0DBFEF407017EF40501E2E
:1015140025B72AC6EF40D01D3245EFB0800E397191
:1015240006CE22CC26CA00104AC8AA8418C8232C86
:101534000401232E14014CC010C454C45CC8EFE051
:10154400003C93077521C19B3301F1401309F1005D
:10155400137909FF930505209306440026864A85DE
:101564002326D4FEE5282145EFF06FC0CA85AA845E
:10157400EF40D06B5966B7B502001306E6FF9385BA
:10158400053C2685EFF05FC12A892685EFF0AFC1BF
:101594004A85EFB00007757106C722C526C3000946
:1015A4004AC1CEDEAE84B7950200AA89130690061E
:1015B40093858565130544F7EFE00020B384344137
:1015C40093870408C19B3301F1401309F100137997
:1015D40009FF13068006930544F74A85EFE0C01D12
:1015E4002686CE8513058906EFE0001DCA94238460
:1015F40004064A85EFE09FB7411122C426C206C6FD
:10160400000801119307F100C19B9384C700379828
:10161400020026871308486CA9482543B3761603AD
:101624007D17C29683C606002300D700B2863356C0
:101634001603E365D3FE998C63E09502B385974066
:101644002686B105EFE04017130104FFB24026855A
:101654002244924441018280FD54FDB77971FD1505
:1016640022D426D24AD04ECE52CC56CA5AC85EC6CE
:1016740006D662C42A89B284B309B5002A84130A3F
:101684005002930A3007130BA007930B500783C72C
:101694000400ADCB637C3403639B470183C7140010
:1016A400638E5701638F670363934701850483C780
:1016B400040005048504A30FF4FED1BF9C421386E5
:1016C400460003C7070019CB63153401A2854A8578
:1016D400D93505048507A30FE4FEE5B78904B2866E
:1016E4007DB783C72400E39477FD9042B385894096
:1016F4002285138C46000937E35AA0FC2A948D04F2
:10170400E28671B72300040033052441B250225409
:1017140092540259F249624AD24A424BB24B224C89
:1017240045618280379502001305056D8280B7A755
:1017340002009387075C1CC16FF0CF93411122C450
:1017440006C62A84ED3722852244B24091454101E0
:101754006FF06F94379502001305C56E8280B7A7AA
:1017640002009387C75E1CC16FF0CFAF411122C442
:1017740006C62A84ED3722852244B24091454101B0
:101784006FF06F91379502001305C56F8280B7A77C
:1017940002009387C7611CC16FF0CFAC411122C412
:1017A40006C62A84ED3722852244B2409145410180
:1017B4006FF06F8E0111C1473EC41C4122CC3284AC
:1017C4009C4F104206CE02C002C202C68A8682978D
:1017D400924719470145998B6395E7008247054570
:1017E4001CC0F24062440561828019456303C7004E
:1017F40005458280B7A70200938707661CC16FF076
:10180400FFBC411122C406C62A84ED372285224436
:10181400B240A14541016FF00F886308B5028346C9
:1018240005001307A00281476382E60283C705000F
:10183400411106C66393E7008505EFE0001AB24044
:10184400933715003E854101828085473E8582801D
:10185400CC414841411122C426C206C6B284368412
:101864006D3F11C5A1475CC4994704C05CC0B24038
:101874002244924441018280011122CC26CA4AC8E2
:101884004EC652C406CE032A4500B284B6893A89AC
:10189400468463100703CC435285413719C904C4F5
:1018A400F2406244D2444249B249224A01450561A8
:1018B400828083A5490052858D377DD185472320B9
:1018C400240144C05CC4E9BF011122CC26CA2E8481
:1018D400AA84CC4148414AC806CE32C63689353F2F
:1018E40019ED8D4763ED27011C4022856244324681
:1018F400F2404249DC4BA685D24405618287F2401E
:101904006244D2444249056182809307E004630D36
:10191400F50063E6A7001115133555008280130501
:1019240005FB1335250082800545828054491C4DF2
:101934002A8763DFF60051463386C6021C498506B2
:101944003385C700232205002324050054CB82805D
:1019540001458280411122C426C24AC006C69307AB
:1019640010032E843289B68463E2B7089307800299
:1019740063E3B702A94763EDB702914763FEB70477
:10198400938775FF05476360F70A630E0908793F7B
:1019940055E9AA84A9A0938775FD21476365F708D3
:1019A40037A702008A0713074768BA979C438287C0
:1019B400138755FF8547B397E7003727802F79179B
:1019C4007D8F61F713D7E7001377F70F69F33707B4
:1019D40040000507F98FA1CB63070904CDF8B24095
:1019E4002244024926859244410182809307F004EF
:1019F40063EDB7029307300363F7B7021307C4FC20
:101A04008547B397E7003717C701130777107D8F12
:101A14002DFF3737000A130787EFF98FD5FF930798
:101A2400E004E306F4F681445DBF9387E5FA2547B5
:101A3400E36FF7F437A702008A071307876ABA9798
:101A44009C43828700C12326250104C999B741110B
:101A540022C426C206C6AE843284C93D01CD85C0E7
:101A6400635F800023220500232405002320050052
:101A740044C500C9B24022449244410182800145D8
:101A8400D5BF411122C406C62E844D3509C593071E
:101A940070021CC140C5B2402244410182805845B5
:101AA4001306E006AA868347070001486398C70027
:101AB400930717005CC58347170005483706008065
:101AC4000145A5487D16A945138707FD9377F70FB0
:101AD40063F7F800630708023305A0408280B30768
:101AE400E640B3C7B70263CDA700B307B502330519
:101AF400F700DC4613871700D8C683C71700E9B779
:101B04007D558280411122C426C206C6AA84393D6D
:101B14002A8419C5930730041CC12685493748C453
:101B2400B24022852244924441018280411122C460
:101B340006C62A8499ED5C4503C7070011E70145F1
:101B4400B2402244410182801387170058C583C5DF
:101B5400070093078006639FF500228589375C445C
:101B64001307F00583C60700E39BE6FC85075CC406
:101B74000545F9B793076007E393F5FC228505371C
:101B84005C441307F00583C60700E39AE6FA850769
:101B94005CC4E1B75845930620052E8683470700A9
:101BA400638BD7009306F004639FD7005C559305BD
:101BB40000028D0721A05C55FD45890705075CD50A
:101BC40058C5814641BB2E8582805C45411122C4A3
:101BD40006C683C707001307F0052A846389E70252
:101BE4001307E0066397E7007D55B24022444101A4
:101BF400828075350505E34905FE5C441307F0054D
:101C040083C60700E392E6FE85075CC4F9BF01457D
:101C1400EDB75C451307400583C607006384E600FF
:101C240001458280411122C426C206C685075CC5CF
:101C34002A84613FAA84014563C804002285FD31DA
:101C440001C595471CC144C5B24022449244410198
:101C540082805C459306F00503C70700631DD70423
:101C6400411122C426C206C69386170054C583C6F2
:101C740017002A8485446395E60089075CC5894476
:101C84002285313DAA87014563C207020947639E45
:101C9400E4002547635BF7005C441307F00583C643
:101CA40007006395E60085075CC40545B2402244FD
:101CB40092444101828005458280AA8799CD1851BA
:101CC40054510145635CD700D44F13162700050710
:101CD400B2968CC298D30545828001458280411119
:101CE40022C426C22E84AA8406C685451305004054
:101CF400130810049308200205C81C4463C6F502A7
:101D040003A6C4116342C50285071CC41C40636654
:101D1400F80863E0F8021D47638DE7026366F70481
:101D24000D47636AF702B9EBB24022449244410181
:101D340082801387D7FDB786FE7F3397E5009386AD
:101D4400C6DEF98E85EE0D8B35E713073003E39D70
:101D5400E7FC004855B71147E398E7FC83A7441410
:101D6400850723A2F41419A82147E384E7FE5D47FD
:101D74006376F7009D172547E368F7FA4C44050698
:101D840023AEC4102685A13F0C482685893F83A72E
:101D9400C411FD1723AEF41041BF9387C7FB454719
:101DA400E364F7F837A702008A071307076DBA97A9
:101DB4009C4382875C4498439547E311F7FC83A7CF
:101DC4008413850723ACF41255BF404435B7411141
:101DD40022C4130405100C4026C206C6B307B5007E
:101DE400238007001C445044AA8482971C5423A0D7
:101DF4000410B24085071CD42244924441018280DD
:101E040003270510411122C426C206C69307F00F0A
:101E14002A84AE846313F7005D3F8327041013877D
:101E240017002320E410A297238097002302941024
:101E3400B2402244924441018280411122C426C20C
:101E44004AC006C62A892E84B384C5006318940048
:101E5400B2402244924402494101828083450400F5
:101E64004A850504713FDDB7AA879306F002014550
:101E740091C798436314D700D84711E382809C4BE1
:101E84000505FDB7011122CC2A842E8506CE2EC667
:101E9400EFD0F0262A8622856244B245F2400561DD
:101EA40069BF79712E86B795020022D49385C570D7
:101EB4002A84480006D6EFC0B04E4C002285D9379C
:101EC400B250225445618280011122CC06CE938700
:101ED40085FA094732846361F70237B702008A073B
:101EE4001307C7AFBA978C432AC6693FA2856244D9
:101EF4003245F240056175B78547B7950200232C3A
:101F0400F5109385056CCDB7411122C406C626C2CF
:101F14004AC02A846936635EA0080329C4005C4071
:101F2400AA840145B387274163CB97061844B307B6
:101F340099005CC4118B09CB83C6070013074002C8
:101F44006394E60085075CC4A54763D19706B795FB
:101F540002002146938505714A85EFC0707C39E5FE
:101F6400834789001307E002638AE7001307F0053B
:101F74006386E70013074002639AE7020347990068
:101F84009307E0046314F7025C54B79502005546C6
:101F9400D907858F5CD49385C57122854D3C08D4BF
:101FA400B240224492440249410182802686CA8575
:101FB400EDB70145F5B7011126CA045522CC4AC82C
:101FC40006CE2A842E86130920045C4403C7070026
:101FD400630A270104D4F2406244D2444249328560
:101FE4000561828085075CC4228532C6313F324652
:101FF400AA869305D0042285B13A2A86F9B7797165
:1020040022D426D24AD04ECE06D62A84AE841309D0
:102014007005930900055C4403C7070063042701A6
:10202400054525A81387170058C403C7170093054F
:1020340030056316370189075CC493054005904059
:1020440022852EC632C4C935B2452246AA862285C7
:10205400113288C0AA8509E90145B250225492542C
:102064000259F24945618280228581394DF5EDB7E7
:102074009307F00263D90500828018416319F700C1
:1020840089C50849FD1575F9828048458280014556
:1020940082808327051189C7DC43CC45884BC9BF9F
:1020A4008547232CF5100145828001114AC837A9C0
:1020B400020022CC26CA4EC606CEAA842E84A1498A
:1020C400130989710DC41C4063F5F9021307300329
:1020D4006386E7046363F702A1176947636CF70239
:1020E4003787FFFB79173357F740058B05E7014521
:1020F40089A08A07CA979C4382879387E7FB69472D
:10210400636AF70037170004130737CE3357F70015
:10211400058B71FF4C442685493F01ED00485DB7AE
:10212400A2852685BD3761D518419307F002E310D7
:10213400F7FCF2406244D2444249B24905618280CC
:102144000111584226CA04469387150022CC4AC876
:102154004EC6BA9706CE5846AA892E89328463F2AF
:10216400F4040DE791E0894463E9F4020840A6858C
:10217400EFB0B0450DE50840EFB0A06985472320D6
:10218400040023220400232404005CC4F2406244BB
:10219400D2444249B249056182808604F1B708C03D
:1021A40004C45C44E5F75C4008404A86CE853E950D
:1021B400EFD080601C405840CA97BA97238007002C
:1021C4005C40CA975CC0D9B71C4113078003F59BD8
:1021D400639AE7025C45130740060145DC479C43CC
:1021E40083C607006391E60283C7170013079006AE
:1021F4000545638AE70093F7F70D938787FA13B5CC
:1022040017008280014582801C4113073006014576
:1022140083C617006391E60283C707008546054518
:102224001387E7F81377F70F63F7E6009387D7F977
:1022340013B5270082808280757122C506C726C324
:102244004AC1CEDED2DCD6DADAD8DED6E2D4E6D2A1
:10225400EAD02A8401CE58428547B28463C8E70095
:102264008327C5119306004063D3F6028547232CC8
:10227400F410BA402A449A440A49F659665AD65A7E
:10228400465BB65B265C965C065D49618280050709
:1022940058C21387170093070510D8CFD85783A9BE
:1022A400870132C810083ACAD0D76394090203AA36
:1022B40004009307C005E3EB474B37A702009317CD
:1022C4002A001307C773BA979C4382879048CC446B
:1022D400AD36D2472326F412DC40FD17DCC0832739
:1022E400C411FD17232EF41069B7D044C545A9378E
:1022F400B7950200228593854573693690482285F7
:10230400C5451D3F9305D0052285DD3CD9B793050E
:10231400B005FD342689B79902000326C900C545D6
:102324002285193F03290901631409006F0090599C
:102334009385C9732285B936CDB7D044C545ED3DE3
:102344002285930500046D3C9048C5452285ED35F2
:1023540049B7D04419C2C545C535984093074005CF
:10236400630BF700DC449305E00281EB9048C5451C
:102374002285D935B9BF9305A00322855134FDB711
:10238400D044C545553DB795020093850574228513
:10239400D53C03A9040193078004032709006315AE
:1023A400F702B7950200938545742285E13C8325A5
:1023B400090122858505F534B79502009385457595
:1023C4002285C9340329C9004A86C5452285AD350D
:1023D40009B703A9C400930A0102832B4511568A45
:1023E400232A05108149914C6304090063969901DD
:1023F4008547232CF410F1BD23240A0083274411BC
:10240400032B0411032C09002320FA00232A44116E
:1024140023222A0123266A016285EFF00FCF850962
:10242400410A35E589476317FC020329090193072B
:102434008004032709006314F7000329C900139AD1
:102444004900569A914CE30509FA03250900EFF077
:10245400CFCB29E10327090091476317F7003C0814
:102464005ACC2328F4104ACE9048C5452285E93336
:102474000327090091476315F700E2472328F41066
:102484009209D69963903A05232A741199B50329C0
:10249400C90099BFE38E99F5130C0AFF5285414692
:1024A400E285EFD06031232A2AFF232C0AFE232061
:1024B4008A01232A4411232E6AFF0329C9008509AE
:1024C400410A51B783A789FF99EB9305000222853E
:1024D400053A03A649FFC5452285EF104002C119FC
:1024E40055B7D04403298514832945112324951411
:1024F400232A0510C5458933034744109307C003B5
:102504006317F700930500022285EFF07F8F930590
:10251400C0032285EFF0DF8E9048C5452285293B14
:10252400034744109307E0036317F7009305000281
:102534002285EFF0FF8C9305E0032285EFF05F8C9A
:10254400232A34112324241569B3D0448327051284
:1025540013071600635BF702832705113287DC43F8
:10256400DC4789CB01EF94431307B005639BE60076
:10257400DC4781EB8547232CF410A1BB9C4B7D17D2
:10258400CDB78C4322858932A9B391CFB795020088
:10259400154693858575EFF05F8ACC4422858505C1
:1025A400EFF03F903DB3A685ED342A8661D51841FE
:1025B4009307F0026317F70083254412553C2A86DB
:1025C40055D903290411C5452285832709002328E9
:1025D400F4109D3123282411EDB9B7950200938599
:1025E4000576EFF03F8AD044C5452285B131D5B197
:1025F4009048C5459131F1B99305E007EFF05F804C
:102604009048C54522850D39E9B1B79502009385F7
:102614000578EFF03F87D044C5452285313955B957
:10262400B795020093858579EFF0DF85D044C545E1
:102634002285193179B9B79502009385457AEFF06F
:102644007F84D044C5452285C53E61B1B79502005B
:102654009385057BEFF01F83D0442285C545E93E71
:10266400B795020022859385C57CEFF0BF81904821
:10267400C5452285D136B1B9B79502009385457D0C
:10268400EFF05F80D044C54522857D3699B1B7957A
:1026940002009385457EEFF0EFFED044C5452285C8
:1026A400613E05B9B79502009385857FEFF08FFDF4
:1026B400D044C5452285493629B9B7A5020093857A
:1026C400C580EFF02FFCD044C5452285B53611B145
:1026D400B7A5020093850581EFF0CFFAD044C54534
:1026E4002285993EFDB6B7A5020093854582EFF099
:1026F4006FF9D044C54522858136E1BEB7A50200F5
:1027040093850584EFF00FF8D044C54522852D3616
:10271400C9B6B7A5020093850585EFF0AFF6D0449E
:10272400C5452285113E75B6B7A502009385458639
:10273400EFF04FF5D044C5452285FD3C59BEB7A501
:1027440002009385C587EFF0EFF3D044C545228599
:10275400E53441B6B7A5020093858589EFF08FF281
:1027640090482285C545C93CB7A5020022859385BA
:102774000589EFF02FF1D044C5452285753C91BE03
:10278400B7A502009385058BEFF0CFEFD044C54584
:1027940022855D343DBEB7A502009385858CEFF09C
:1027A4006FEED044C5452285413C25B6B7A502004D
:1027B4009385458CEFF00FEDD044C5452285AD3CA3
:1027C40009BE9048CC44EFF04FE721B603264511EB
:1027D400094731E22689832744114AD202D43ED0E4
:1027E4001C10232AF410832704113ED619E2032671
:1027F400C900C54522858934A25791E74A86C54553
:102804002285EF00D04F8257232AF410E38309ACCA
:10281400232854117DBC1C4691EF5C429C43938653
:1028240077FE6369D7106317FA00D044C545228543
:10283400213445B4104271BF8327051203A9C40093
:10284400F1EB03270900954781496315F70C03272A
:102854004513814763CAE700832784136340F70263
:102864008547232CF410B5B48326041393953700BD
:10287400AE968C42630FB9068507E9BF832704131C
:1028840093163700032604110507B697232AE4128A
:1028940023A02701910715EA23A007008149CA85CF
:1028A4002285EFF00FFF2A8901CD18419307F0022A
:1028B4006312F70683254412EFF08FFB2A8939E966
:1028C400E38A09CA2328541175B183260414032703
:1028D4004414E3D7E6F80327C4139395360085061A
:1028E4002320D41454422E9754C398C31042BA8759
:1028F4005DB7B2879843E303E9FA6394E400E39F86
:10290400C7F8DC43E5FBDC42832A0411854923280C
:10291400F41071B783270900130730020146E38CD2
:10292400E7EAE30AFAEA130740026396E70003269C
:10293400C9004DB581492689014671BDDC44D043A7
:102944008C43EFF08FCF6FF0DF98DC448C43D0439F
:10295400EFF0AFCE839504012285EFF08FD483C7C7
:102964002401E38807960546938524012285EFF028
:10297400CFCC6FF01F96D044C545EFF0FF8B6FF0BE
:102984005F95D0448327451105CA3ED01C10232AE5
:10299400F51083270511C54526D23ED602D4EFF0A3
:1029A400BF898257232AF410A257E3940792930510
:1029B40000022285EFF0CFC4832644112686C54544
:1029C4002285EF0010486FF0DF90032B4511832719
:1029D4000511930A01025AD0232A551126D202D492
:1029E4003ED6DA890549094C8D4C054D63880900AA
:1029F40083A749009C439D176378FC029048C54512
:102A04002285EFF07F83A257232A64118549E3923C
:102A1400078C63EF2905832644112686C545228544
:102A2400EF0010616FF0FF8A83A789009DEF63F7C1
:102A34002C018547232CF4106FF0BF89131A490029
:102A440093070A051808B38BE7004146CE85138522
:102A54000BFCEFC0705683274411569A232A441165
:102A640023A0FBFC23A4A901050983A90900BDBF78
:102A74007D1993174900D697D043C5452285EF00A9
:102A8400102841BF832745119048C5453ED01C10EE
:102A9400232AF5108327051126D202D43ED6EFF05F
:102AA400AFF9A25791E72686C5452285EF00302568
:102AB4008257232AF4106FF0DF81D04401C6C54544
:102AC400EFF08FF79C48E3860780032704109307F1
:102AD400D00F63F5E7002285EFF06FAFB7950200E2
:102AE4009385C5732285EFF0EFB99048C5452285DB
:102AF4000329041083298412EFF00FF4832784122E
:102B04006399F9FC832704106315F9FC79192320D0
:102B140024116FF00FFCD04403A9040101C6C5457C
:102B2400EFF08FF122859305B007EFF06FAD2285AA
:102B34004A86C545EFF04FF09305D0072285EFF0A4
:102B44002FAC6FF00FF983A9C400B7A502009385D9
:102B5400058E03A98900EFF0EFB283A7490065470A
:102B640083C707009387F7F993F7F70F6367F700B5
:102B7400930500022285EFF0AFA883A54900B3872F
:102B8400250103C7F7FF930700026313F7007D19BC
:102B94004A862285EFF06FAA6FF0AFF3B7A5020063
:102BA4009385C58EEFF00FAE9048C5452285EFF0B2
:102BB400AFE86FF00FF2B7A502009385C58EEFF072
:102BC4006FAC8327841481CB032704113ED23AD0FF
:102BD40018102328E410D04491471842630FF700DB
:102BE400C5452285EFF04FE583278414638307EE00
:102BF40082572328F4106FF0CFED5046C545228547
:102C0400EFF08FE38327841481C782572328F410BD
:102C1400034744109307C0036317F70093050002AA
:102C24002285EFF0EF9D9305C0032285EFF04F9DC1
:102C3400DC44C5452285904BEFF00FE00347441078
:102C44009307E0036317F700930500022285EFF072
:102C54002F9B9305E0032285EFF08F9A6FF06FE7C7
:102C6400D044C545EF00D0466FF0AFE683AAC40058
:102C74001307200303A9040183A70A006391E70E45
:102C840083A7CA00B7A502009385858F03AA07000E
:102C94005285EFC090548327090031E50D476394B2
:102CA400E7048327C90005479443639AE600032792
:102CB40009011443130790026393E6003E89B7A504
:102CC40002009385C58F5285EFC0305115EDCA853A
:102CD4002285EFF08FBDEFF02F99AA852285EFF0C2
:102CE4004F9C6FF00FDF13079003E39AE7FC032672
:102CF400C9002285C545EF00503F5686C54522854B
:102D0400EF00103D6FF0EFDCB7A50200938505904E
:102D14005285EFC0904CAA8921E9130AF002930A64
:102D2400C004630609008327090063884701CE8530
:102D34002285EFF00F976FF0CFD98327C900E5DB29
:102D44009843631C5701CC472285EFF00FB6EFF090
:102D5400AF91AA9903290901E9B78509E5BF1307CA
:102D640040036381E702014A5686C5452285EF0088
:102D7400303663190A024A86C5452285EF00F036CB
:102D84006FF02FD593058002EFF08F8703A6CA005A
:102D94002285C545EFF04FCA930590022285EFF0D6
:102DA4002F86D1BFB7A50200938545905285EFC009
:102DB400D04201E94A86C5452285EFF0EFC76FF09E
:102DC4004FD1B7A502009385C5CB5285EFC0F04023
:102DD4005DF1228593058002EFF08F8222854A8679
:102DE400C545EFF06FC5930590022285EFF04F8142
:102DF4006FF02FCE9C48984393079003631CF7F61B
:102E0400D044484632C6EFF02FC0324621C5228551
:102E1400C545EF00F02B22859305C003EFE05FFE6C
:102E24009C482285C545D047EFF00FC1B7A50200E5
:102E3400228593858590EFF0EF849C482285C545D3
:102E4400904BEFF06FBF930590022285EFE05FFB9C
:102E54006FF02FC82686C5452285EF00502E631AD1
:102E640005C62686C5452285EF00703E631305C658
:102E7400DC441307200394436393E602DC470547CD
:102E84009447639EE600DC4303C707009307E0030F
:102E94006317F700930580022285EFE07FF6DC4498
:102EA40037AA02009305CA90DC478843EFC0F0328A
:102EB4009C48D04719ED18428D47631CF7001C4A03
:102EC4009843930790026305F7008547232CF41079
:102ED4005046C5452285EF00502103A9C400B7A57B
:102EE4000200938505918327C90083A907004E85B5
:102EF400EFC0B02E31E99305B0052285EFE05FF015
:102F04009C48C5452285904BEFF00FB39305D0053F
:102F14002285EFE0FFEEDC44130720039443639A19
:102F2400E6BADC47054794476395E6BADC4303C732
:102F340007009307E003631EF7B893059002228508
:102F4400EFE01FEC6FF0EFB89305CA904E85EFC029
:102F5400D02811C54A86C5452285EF0070179C48C4
:102F6400C5452285904BEF00501875B78547232C33
:102F7400F4106FF00FB69C481307B0039443639B9F
:102F8400E6DE9C4B98439307C0036315F7DE268661
:102F9400C545EF00D01A631E05B22686C5452285B5
:102FA400EF00F02A631705B29C4803AAC400B7A532
:102FB4000200D0479C4B9385459132C683A9C70034
:102FC40003A907018327CA008843EFC010213246B2
:102FD4000DED2285C545EF00501152862285C54569
:102FE400EF00100F4E862285C545EF001010B7A5DF
:102FF4000200228593858591EFE0DFE84A86C54586
:103004002285EF00900E6FF0CFACB7A50200938538
:10301400C591228532C6EFE0FFE632465C4691CB8D
:10302400C5452285EF00700C930500022285EFE070
:103034003FDD4E86C5452285EFF00FA063140900DD
:103044006FF02FA94A86C5452285EF00100A6FF05C
:103054004FA8DC44130770029443639DE614DC47D5
:1030640003A90701994763E627076315090A93052E
:1030740080022285EFE0DFD8D044C5452285EFF0F9
:10308400AF9B930590022285EFE09FD7984093076A
:10309400E0036317F7009305D0022285EFE05FD6C3
:1030A400A1476317F9009305B0052285EFE05FD5CA
:1030B4009048C5452285EFF02F98A1476304F90095
:1030C4006FF02FA19305D0052285EFE07FD36FF039
:1030D4004FA09D47E31DF9F89C48984349FB944B46
:1030E4000547E396E6F81307D003E312EAF8DC4752
:1030F4001307000383C707006386E70A1307100357
:10310400E397E7F6B7A5020093858593EFE09FD791
:103114006FF02F9C9C489C43B9FB9307E003631614
:10312400FA009305D002EFE0BFCD9048C545228553
:10313400EFF08F907919914763F427016FF06F993D
:10314400B7B702009387078B0A093E9983270900C2
:103154008287930550072285EFE09FCA6FF06F972F
:103164009305C0062285EFE0BFC96FF08F96B7A51F
:103174000200938545922285EFE0DFD06FF06F95D2
:10318400B7A50200938585922285EFE0BFCF6FF04B
:103194004F94B7A502009385C5922285EFE09FCE98
:1031A4006FF02F93B7A5020093850593EFE09FCDB1
:1031B4006FF02F92014965BDD044C545EFF0CF872C
:1031C400228593058002EFE0BFC390482285C54560
:1031D400EFF08F86930590022285EFE07FC26FF0B7
:1031E4004F8FCC44EFE0FFCB6FF0AF8EB7A502005A
:1031F40093850594EFE01FC9D044C5452285EFF0BF
:10320400AF836FF00F8DD044C545EFF0EF82904847
:10321400C5452285EFF04F826FF0AF8B83C5C400A4
:10322400EFE01FBE6FF0EF8AB7A502009385059506
:10323400EFE05FC5D0442285C545EFE0FFFF93056D
:1032440090022285EFE0DFBB6FF0AF8803290512FF
:1032540003AAC400630F090022855286C54571255F
:10326400B7A502009385C5952285EFE0BFC16FF035
:103274004F86D285EFE07FE365D1EFE0FFBEAA89F8
:10328400B79A0200634439016FF0AF846307090001
:103294009385CA732285EFE0FFBE2322241352864E
:1032A400C5452285EFE05FF90509E9BF03A9C4001C
:1032B400631A0900B7A5020093850596EFE09FBC49
:1032C4006FF02F81B7A5020093858596EFE09FBB31
:1032D400CA852285EFE0FFBC9305D0072285EFE085
:1032E4003FB26FE01FFFB7A5020093850597EFE09B
:1032F4007FB9D044C5452285EFE01FF46FE07FFD20
:10330400B7A5020093850599EFE0DFB7D044C54522
:103314002285EFE07FF26FE0DFFBB7A50200938523
:10332400059BEFE03FB68327041183A9C400032A59
:1033340004123ED01C102320041202D22328F410BD
:10334400638D090203A70900930770056317F70249
:103354009305C00322854ED2EFE09FAA03A9C900BA
:10336400B79A0200130BB005631009069305E00336
:103374002285EFE0FFA883A909018327041222858F
:103384009305800285072320F412EFE07FA74E8681
:103394002285C545EFE05FEA8257B7A50200228582
:1033A4002328F410232044139385859BEFE09FADDD
:1033B4008C4822858505EFE0DFAE9305D007228592
:1033C400EFE01FA46FE0FFF08327041213871700B8
:1033D4002320E41291C79385CA732285EFE09FAA44
:1033E4004A86C5452285EFE03FE593050002228524
:1033F400EFE01FA183270900639467010329C90033
:10340400032604128325090022857D16EFE0DFAB35
:103414000329090191BFB7A502009385C59BEFE07D
:103424007FA6CC4422858505EFE0BFA79305D0078E
:103434002285EFE0FF9C6FE0DFE9D044C545EFE073
:10344400BFDFB7A5020022859385C59CEFE09FA34B
:1034540090482285C545EFE03FDE9305D0052285DF
:10346400EFE01F9A6FE0FFE69305C003EFE05F997A
:1034740003A9C4008149379A02006319090093051E
:10348400E0032285EFE0DF976FE0BFE46387090084
:103494009305CA732285EFE0FF9E4A86C5452285BF
:1034A400EFE09FD9850903290901C1BFB7A502002F
:1034B4009385859DEFE01F9D6FE0BFE1B7A50200F6
:1034C4009385459EEFE01F9CD0442285C545EFE0DF
:1034D400BFD6B7A502009385059F2285EFE09F9A8A
:1034E4006FE03FDFD044C545EFE01FD5B7A502002C
:1034F4009385C5952285EFE0FF986FE09FDD1C4220
:10350400411126C206C622C40D47B2846384E71063
:103514009D17130780032A84636EF71037B70200E0
:103524008A071307478CBA979C438287B7A5020082
:103534009385859F22852244B240924441016FE0E5
:103544007F94B7A50200938545A0EDB7B7A5020007
:10355400938505A1C5B7B7A50200938585A1D9BFF9
:10356400B7A502009385C5A22285EFE0BF919C48D0
:10357400E1C7930580022285EFE09F889048C54506
:103584002285EFE07FCB9305900205A0B7A502004A
:10359400938585A3D1BF93050002EFE07F86904811
:1035A400C545228595A89305A00222852244B240F0
:1035B400924441016FE0DF8493050002EFE05F84F1
:1035C40093056002DDB793050002EFE07F83B7A5A2
:1035D4000200938505A4B9BFB7A50200938545A44D
:1035E40091BFB7A50200938505A5A9B70347451068
:1035F400930780026306F70093050002EFE05F8003
:10360400D044C5452285EFE03FC3B7A502009385AA
:10361400C5A50DB75046C5452244B2409244410168
:103624006FE09FC1B7A50200938505A6EFE09F85D3
:10363400D044B1B72686ADB7B2402244924441018A
:103644008280011126CA3687B684B736040022CC9C
:103654004AC806CE32894EC652C42A844946854594
:103664009386761019E38149A1A81C47EDFF5C43BA
:103674009C439D17636BF600B397F50033F5D700B1
:1036840019ED13D597001D8919E11843E1BF83474C
:1036940044101307800293F7D70F638DE7000347A5
:1036A4004410930700026307F70093050002228584
:1036B400EFE00FF5930580022285EFE06FF4854972
:1036C400032A44118146232A04102686C5452285EF
:1036D400812863870900930590022285EFE04FF269
:1036E400930580022285EFE0AFF10326090109C6A4
:1036F400C5452285EFE05FB4228593059002EFE093
:103704002FF0268622858546C5451928F240232AAE
:1037140044116244D2444249B249224A056182803A
:10372400397122DC26DA52D456D25AD05ECE62CC1B
:1037340006DE4AD84ED62A84B284368A854A130BCA
:103744009002930BA002094CB1C0832784119DEF12
:103754009C4481EFD04083290600631A0A004E85F9
:1037640032C6EFE08F9A324619C18440F1BFDC447F
:1037740023A45401032904112328F4106394690336
:103784009440C5452285753D23282411F250625486
:10379400D2544259B259225A925A025BF24B624CA9
:1037A40021618280639779019440C545228549202F
:1037B400E1BF63998907504683294411C545228591
:1037C400232A0410EFE05FA7B7950200232A3411DF
:1037D400938505742285EFE0EFEADC40844B930780
:1037E400800498406316F702B795020093854574E8
:1037F4002285EFE02FE98C4822858505EFE06FEA0A
:10380400B7950200938545752285EFE0AFE7C44480
:103814008840EFE08F8F65FD2686C5452285EFE061
:10382400BFA19DB7C5452285D9392328241135BFA9
:10383400011122CC4EC606CE26CA4AC852C42A84D6
:10384400B28995EE930500022285EFE06FDB9305C4
:10385400B0052285EFE0CFDA03A6C90009C6C54545
:103864002285EFE07F9D22856244F240D2444249A2
:10387400B249224A9305D00505616FE06FD8B6843A
:10388400B68703A9870063120902DC43014A9843FF
:103894009307A002630FF700B7A5020093858595EF
:1038A4002285EFE02FDE054A21A09C43F9FB014A63
:1038B400054981462686C54522859D3563070A004C
:1038C400930590022285EFE0AFD3E31D09F641B7DB
:1038D4001442130720036397E6005C469047CC43E9
:1038E4006FE0AFD5C5456FE03F951C42011122CC76
:1038F40026CA06CE85442A8463F0F4021307100313
:10390400638CE70019476389E7009305800232C698
:10391400EFE00FCF32468144C5452285EFE0DF91C9
:1039240091E822856244F240D244930590020561F5
:103934006FE00FCDF2406244D244056182805C4660
:1039440013076006DC479C4383C60700639FE60EAB
:10395400184A011126CA044B22CC4AC894400329B0
:10396400C7004EC606CE52C41307C0032A84814939
:103974006395E60083A90401C4447D57032A4412D5
:103984002322E41283C717001307C0066380E706E7
:103994006365F7021307C004638FE7061307200566
:1039A400638BE70623224413F2406244D244424923
:1039B400B249224A05450561828013072007E39333
:1039C400E7FE228593058002EFE08FC326862285D9
:1039D400C545213F22854A86C545DD3DB7A5020080
:1039E400938545A72285EFE0EFC96DBFB7A5020017
:1039F4009385C5A62285EFE0EFC84A86C545228592
:103A0400C13D26862285C545CD3593059002228584
:103A1400EFE00FBF41BF930580022285EFE04FBE68
:103A24002686C5452285D1354A86C54522854D352C
:103A3400B7A502009385C5952285EFE0AFC44A86F9
:103A4400C545228571354E8675BF014582800111B9
:103A540022CC2A84328526CA06CE4AC84EC6B284EF
:103A6400EFE08FF659C1DC449305E002DC4703A97B
:103A740007009C480347190083A9C700844B930798
:103A840090066304F7009305B0052285EFE04FB775
:103A94004E86C5452285EFE02FFA034719009307A8
:103AA4008005631FF700B7A502009385C5A722858B
:103AB400EFE04FBDD044C5452285EFE0EFF78448E1
:103AC40003471900930790066307F7009305D00591
:103AD4002285EFE0EFB22685EFE00FEF11CD2686C9
:103AE400C5452285EFE04FF50545F2406244D244D6
:103AF4004249B2490561828022859305D003EFE0F3
:103B04002FB02686C5452285CD33F9BF034705006E
:103B140093062007AA876301D70493066005054529
:103B2400630DD7029306B0046309D70293064004D9
:103B340001456314D70283C71700854605451387DB
:103B440097F81377F70F63FAE60093F7F70D938767
:103B540017FB13B517008280054582805C45130767
:103B6400300583C607006391E618797122D44AD0E0
:103B740006D626D24ECE52CC1387170058C503C79B
:103B840017002A842E8945EB1C44A18B63940714E7
:103B9400630909005C4403C907001309D9FB1339FD
:103BA4002900B7B702009387C7AF9384C7009387F0
:103BB400070D83C604006395E61283A94401638F4D
:103BC4000900228503AA8401EFD05FD619C5E14715
:103BD4001CC1232635012328450108D4630E090E90
:103BE40003A9C40084485C542285A6975CD4EFD012
:103BF400FFD3AA8511C5E1471CC12326250104C9A9
:103C04005C4403C7070093072004631DF700228563
:103C1400EFE06FBAAA852AC62285EFE00F8AB24583
:103C240011E18145B250225492540259F249624A38
:103C34002E85456182801387270058C503C7170066
:103C44009307F0056306F708930707FD93F7F70F4B
:103C5400254681466379F6009307F7FB93F7F70F40
:103C64006546E363F6F2A54565451306400213086D
:103C7400F005930707FD93F7F70F63E6F502B387A3
:103C8400C602BA97938707FDE3EDD7F8544403C7F8
:103C9400060001CB1387160058C403C7060063004F
:103CA4000703BE86F9B79307F7FB93F7F70FE36AA9
:103CB400F5F6B387C602BA97938797FCF1B78507E1
:103CC4001850E3F0E7F6584C8A07BA978C4399BF2B
:103CD4008147FDB70549F1B503A94400844421B7E0
:103CE400F104E398F4EC35BF81452E8582805C4570
:103CF400011106CE22CC26CA4AC84EC683C6070086
:103D04001307C004638BE6008144F24062444249D5
:103D1400B2492685D244056182801387170058C5AD
:103D240003C717009306F0052A84630AD704930790
:103D3400A0056308F704EF005005AA8471D5184163
:103D4400930770020329C4006315F7065C45984B7A
:103D540009C75854D443158F58D48843B7A50200D3
:103D6400938545A8EFB070470347090039E19307ED
:103D740050046310F70405092326240179B7890741
:103D84005CC55C441307A005814483C6070063989F
:103D9400E60085075CC481452285852AAA845C44A3
:103DA4001307500483C60700E390E6F685075CC456
:103DB400A9BF034709009307E0069309D0036317DB
:103DC400F7000509232624019309E0034C44130753
:103DD4005004504483470600639DE7000D8E2285FE
:103DE400EFD0FFC6AA862686CE852285EFD09FB661
:103DF40075B799DB050650C4E9BF58459306C0045E
:103E040083470700638AD704411122C406C62A8463
:103E140063EFF600938777FB93F7F70F0547637E0D
:103E2400F70222852244B24041016F0000769306D6
:103E34008005E398D7FE050758C5EF10B00F5C4422
:103E44001307500483C60700639DE60085075CC41E
:103E5400B24022444101828059BD2244B240410112
:103E640071A00145F5B75C45797122D44AD006D6D4
:103E740026D24ECE83C607001307500403298502B9
:103E84002A846390E6022254B25092540259F249B1
:103E940085075CC5814601469305F00245616FD0F4
:103EA4007FAB02C66400930950042285B9372A8681
:103EB40009E90145B250225492540259F24945612C
:103EC400828081469305F0022285EFD0BFA888C086
:103ED4006DD15C449304050103C70700E31737FD64
:103EE400850732455CC423242403E9B754450546B9
:103EF40083C70600938777FB93F7F70F6365F60094
:103F0400850654C58DB7014582805C455D71A2C4A8
:103F140086C6A6C2CAC04EDE52DC56DA5AD85ED66F
:103F240062D403C70700930670042A846306D7008B
:103F340093064005631CD73458549306470154D460
:103F440003C60700930640056316D602938617003E
:103F540054C483C61700ADE68144B64026440649DE
:103F6400F259625AD25A425BB25B225C268596446D
:103F74006161828013077004E310E6FE1387170063
:103F840058C403C7170069DB1387270058C403C745
:103F940017006305D72863EEE618930790046300BF
:103FA400F726930720056301F72493071004E3150C
:103FB400F7FA81452285913F2A868146DD4549A04D
:103FC4009386270054C483C717009306700563E5DE
:103FD400F60293060004E3F1F6F89387F7FB93F7F0
:103FE400F70FD946E3EAF6F6B7B602008A079386D6
:103FF400869AB6979C438287130780066384E708F2
:1040040013076007638EE70813073006E396E7F4A7
:1040140081452285EFD09FB121D181452285EFD002
:10402400FFB01DD981452285CD352A868146C545F7
:1040340001A83D0758D42285892B2A868146A545A7
:1040440022852644B64096440649F259625AD25A09
:10405400425BB25B225C61616FD0DF8F290758D469
:10406400228525232A868146A945D9BF2285312B5D
:104074002A868146B145E9B72285012B2A868146E5
:10408400B5457DBF930580062285EFD03FAAE305A1
:1040940005EC81452285953D2A868146BD454DB76F
:1040A400930560072285EFD07FA8E30705EA8145E1
:1040B4002285A13D2A868146C14559B72285F12131
:1040C400AA842285EFD0BF9DE34805E85C4413072A
:1040D400F00583C60700E391E6E885075CC4228502
:1040E4006D215C542A86A68695075CD4AD4589BFAC
:1040F400228561292A868146B94599B7228571218D
:104104002A868146C9452DBF81452285B5242A8644
:104114008146D14535B781452285B92C2A86814609
:10412400D54539BF2285D1392A86814693050003B6
:1041340001BF930760056302F70A93072007E31D95
:10414400F7E02285EFD0BF958547E3D7A7E05C442D
:1041540003C70700E30207E09384170044C403C7BE
:1041640007009307F005E319F7DE930BF5FF014B06
:104174001309400293093005130A2004930AF00539
:1041840083C70400E38A07DC639C270D83C41400FF
:104194006382340D6383540DE39024DD2285EFD0D4
:1041A400EFF801C52320450144C54444F91B8904A3
:1041B40044C4E30305DA630B0B00AA865A8693050D
:1041C40010042285EFD00FF9E30805D86342700983
:1041D40081462A8693050004A5B581452285692A6E
:1041E4002A868146CD45A9BD8145228571222AC6EC
:1041F4002285EFD03F913246AA86D94591B56C0805
:10420400228502CEEFD0BFDFE30805D4F244E38673
:1042140004D481462686930560051DB503C727008F
:104224008145228505C31387370058C403C7270077
:104234009307E0066318F700C9392A868146930577
:10424400B004FDBBD9312A8681469305A004CDBBB9
:104254002A8B3DB79304F00291B79304E0023DBF6B
:10426400014CB387840183C7070091C76385270185
:10427400050CE3187CFFA68562862285EFD02FFD0E
:104284004444B38B8B41E29444C425B72E898145C1
:10429400E520AA84E30205CC630509001C44858B50
:1042A4008DCB5C4483C70700E38907CA1307500416
:1042B400E385E7CA268791461C436380D70663EDEE
:1042C400F60209466394C700184B7DF781459DA803
:1042D400C44480402285EFD04FE37DF98947E31E33
:1042E400F4C68048E30A04C60840EFD00FE2E306B0
:1042F40005C65C449CC8F5B71306E0046387C70091
:104304006367F6009117E3E3F6FC58477DBF938794
:1043140007FB0546E37BF6FE55BF5847A14619CB7C
:104324001C4363EBF60019466366F604FD17054665
:104334006370F604814729A09387B7FC93B71700ED
:1043440093C517002285EF00207DAA86E30605C0E9
:10435400631D0900984089476319F70018419307C2
:1043640090026314F7002326050026868D45C9B9FB
:10437400184B75B78547E9B7797126D2444522D4DD
:104384004AD006D64ECE52CC03CA04009307500539
:104394002A842E896305FA1463E447039307E0042F
:1043A400630EFA08930730056301FA1481448149C6
:1043B4002686CE852285EF007023AA84814749AAE8
:1043C4009307A005E314FAFE850444C58145353EF0
:1043D400AA892DCD5C441307500483C60700639754
:1043E400E6061387170058C403C71700930630075F
:1043F400631DD70889075CC42285EFD09F8539C522
:10440400B7A502003946938585A92285EFD02FE40C
:10441400AA8403A709008D47631BF70083A709013A
:104424001307900294436394E60023A60700A6862C
:104434004E8689452285EFD0EFD175A0850444C509
:1044440005466C00EF104038AA8919E181441DA883
:1044540081452285EFD00FF4AA8485452285EF009B
:10446400104D23A0A9007DD181C4B24726C6DCC467
:104474005C441307500483C60700E399E6FCB24486
:1044840085075CC46304090ADDA8930640067D5AC7
:10449400631AD70089075CC42285EFD00FF32A8AF8
:1044A400E34605FA81452285C13DAA8419EDFD57ED
:1044B400E301FAF62285EFD06FC739D99307800458
:1044C4001CC12328450144C5A1B71C41938797FB10
:1044D400F59BF1DF2285EFD0CFF771F985BF014657
:1044E4008145EF00B010AA8471BF03C7140093077D
:1044F400400781496315F70293872400B7A502009A
:104504005CC50D46938585AAEFD06FD45C54AA8907
:104514008D075CD483C724008144E39B47E981452C
:104524002285EFF0AFE3AA8419E98144B250225402
:104534000259F249624A26859254456182801C419F
:1045440005479387D7FAE375F7E68547E39F09FCA8
:1045540058448346070013079004639FE60099C7F5
:1045640022856932AA8626869145E9B5A6852285E3
:10457400EFD0AFF475F555BFE30A09FAC5FBA6857C
:104584002285EFD08FF35DF14DB7397126DA4445BA
:1045940022DC2A84268506DE4AD84ED652D456D248
:1045A4005AD0EFF0AFD635C101460C082285EF1082
:1045B400A021AA840DCD5C44228503C7070093077C
:1045C40060046312F704792B88C015C11C410547A8
:1045D40085176368F70042475C4558C598403AC858
:1045E4009CC0C2442285A685EFD02FED11E1814401
:1045F400F25062544259B259225A925A025B2685A9
:10460400D254216182805137C1B783C50400930716
:10461400500563E1B7049307000463EEB7002285F5
:104624006254F250D2544259B259225A925A025BFD
:104634008545216191B39385F5FB93F5F50FD1473A
:10464400E3EFB7FCB7B70200938747A08A05BE958E
:104654009C4182879385F5F913F7F50FE547E3E06D
:10466400E7FC8547B786EC03B397E7009386F6BF6C
:10467400F58F8DE3D147E314F7FA850444C422850A
:10468400EFD09F882A868146930580022285EFD049
:104694006FAC05A85147B385E502B7B7020093870D
:1046A400C7BC22858504BE95EFD0AFBD58455C5488
:1046B4002AC8584344C4BA975CD4C24415BF22855F
:1046C40055212AC821A2938514004CC483C7140021
:1046D4001307F0056381E704938707FD93F7F70F4A
:1046E40025476366F7025044930716005CC483476A
:1046F4001600938707FD93F7F70FE376F7FE058E11
:104704002285EFD0CFB42A8601E901455DBF228519
:10471400EF104002CDBF01465C4432C61307F005DA
:1047240083C60700E393E6FE85075CC42285B13D9A
:104734003246AA869305A00291BF850444C422850B
:10474400A93561D52AC622858935AA865DDD32461A
:104754009305B00225BF2285EFD0AFCB0329C40057
:104764002AC89307900483490900AA846390F90630
:104774005C5891EFAA852285EFD02FD4E30905E692
:104784002285EFF0AFF6AA862686914501B72285E9
:10479400032B4401832A0402032AC402EFF00FF519
:1047A4005C4483C70700639B37012AC6A68522851C
:1047B400EFD0AFD0E30D05E2B246F9B723262401CA
:1047C400232A64012320540323264403C24522855B
:1047D400EFD0AFCEE31305EE19BD850444C42285A2
:1047E4006D332A868146930540024DB5850444C441
:1047F4002285613B2A8681469305200241BD8504BA
:1048040044C4228559332A86814693053002BDBDAE
:10481400850444C42285953B2A868146930550022B
:10482400B5B5850444C422858D332A868146930513
:104834006002A9BD850444C42285EFD0EFEC5C443A
:104844002AC803C7070093079004631DF7002AC60C
:104854002285EFF0AFE93246AA8691452285EFD052
:104864006F8F2AC822851533C2462A869305100203
:1048740031BD938714005CC483C71400E38907D651
:10488400938724005CC483C7140013076004638205
:10489400E70E9387C7FA93F7F70F13072002E3682D
:1048A400F7D437B702008A07130787A5BA979C4342
:1048B40082872285EF0010682A868146930540048A
:1048C4002285EFD02F892AC8E30205F05C4403C790
:1048D400070019E302C8DDBD1387170058C403C7D6
:1048E400070093075004E317F7FECDB5228571390D
:1048F4002A8681469305C00451BBB7A50200114620
:104904009385C5AA2285EFD08F942AC87DB3B7A515
:1049140002003946938545ABF5B7B7B502009385D8
:1049240045DD2285EFD0EF952AC858455C5458439D
:10493400BA975CD459B3B7B50200938585DED5B771
:10494400B7B502009385C5DFE9BFB7B5020093850B
:1049540005E1C1BFB7B50200938545E2D9B7B7B544
:104964000200938585E375BFB7B502009385C5E45E
:104974004DBF2285EFD0AF928329C4009307200650
:104984002A8683C409006396F402C147E311F5C67D
:104994008509B7B5020023263401938585E822856D
:1049A400EFD02F8E5C452AC8C8435C543E9548D44A
:1049B40029B3930780076387F4009307F005E3980E
:1049C400F4C28144228532C6EFC05FF632462A899A
:1049D40009CD9307C0051CC1B7B70200938747E709
:1049E4005CC52318C500230995008509B795020005
:1049F4009385C5702326340148084AC8EFA0401A9D
:104A04004808EFA0D06F5C54B3349000BE94832761
:104A1400C900DC43BE94269559BF03C724009307FD
:104A2400F0056310F7048D0444C42285EF00905010
:104A34002A8615C55C442AC61307F00583C60700F9
:104A44000146639EE60085075CC422853D3E3246EE
:104A5400AA869305D0022285EFC0DFEF2A8632C8EA
:104A6400B5B32285EFD00F8AE1B7B7B502009385BD
:104A740005E645BD797122D426D24AD04ECE52CC19
:104A840056CA06D62A8402C6640013095004930940
:104A9400E002130A2005930AF004584483470700F0
:104AA400B1C763852705638337056384470163962C
:104AB400570183471700638B27032285F9342A861D
:104AC40019E90145B250225492540259F249624AFA
:104AD400D24A4561828081469305E0022285EFC077
:104AE4007FE788C079DD9304050145BF324571D95C
:104AF4001C49E9FB5C45130770029443E394E6FC0C
:104B0400D847A547144BE39FF6FA5C545843998F52
:104B14005CD4232605007DB75C45011122CC06CE6A
:104B240083C607001307A0042A84639DE600850753
:104B34005CC52285993C2A8601E9F240624401451C
:104B440005618280FDF50146228532C62537AA8695
:104B54006DD5228562443246F24093059002056188
:104B64006FC05FDF1C45411122C406C61397D700EE
:104B74002A84634B07005C5D0567130707800145C2
:104B84006364F70285075CDC5C441307600483C636
:104B94000700638FE60001451C441397D700634563
:104BA40007005C5CFD175CDCB2402244410182805A
:104BB4001387170058C483C617001307900563941E
:104BC400E60089075CC485452285B937AA85228514
:104BD400EFC05FFC5C441307500483C60700E39CEA
:104BE400E6FA85075CC44DBF5C451307400583C6E0
:104BF40007006390E60A411122C426C206C603C711
:104C04001700930640072A84AE846304D70663E042
:104C1400E6029306E0066307D70493060007630AD7
:104C2400D702B24022449244014541018280930656
:104C34009007E318D7FE89075CC5930580050145F5
:104C44002A8622852244B2409244814641016FC0A3
:104C54007FD089075CC5493F9305B00575F1854749
:104C64009CC0C1B789075CC50D329305900569F9ED
:104C7400FDB789075CC505207DD15C44130750044A
:104C840083C60700E39DE6FC85075CC49305A00585
:104C940045BF01458280011122CC26CA4AC806CEEE
:104CA4002A84AE8402C61309C100A68522852D3F3D
:104CB4000DE1324601CA8146930570052285EFC095
:104CC4007FC92AC6F24062443245D2444249056152
:104CD40082802320A90013090501C1BF5C4541114D
:104CE40022C406C626C24AC003C707002A8411C7C5
:104CF4001387170058C503C707005C4483C6070021
:104D0400D9C69386170054C483C607009307600767
:104D14006314F704138906FD1376F90FA54763E8B6
:104D2400C7062285EFD04F9EAA842285EFC01FC0FC
:104D340001E90145B2402244924402494101828082
:104D4400EDD89307300323220500232405001CC15A
:104D54002326250104C9F9BF130630066319C702C7
:104D64006397F6021C584458228593B717005CD801
:104D7400EFF0BF815C582A8681469305500399E37E
:104D8400930540032285EFC0FFBC44D865B737B50F
:104D9400020093058004014609431305C5E9B3875E
:104DA400C540B3C76702B29793944700AA9483A8F7
:104DB400040003C808006318E80203C81800631B52
:104DC400D8002285EFC09FB635D5930720031CC1B8
:104DD40044C58DB763E5060113861700AE87E30A61
:104DE400F6F4BE856DBFE36C07FFFDB739714ED68F
:104DF400AE896C0026DA06DE22DC4AD852D456D2BA
:104E0400AA8432C6EFD0AF9F63080524DC4425464C
:104E140003C70700930607FD93F6F60F6365D604F0
:104E24002685EFD06F8E2A84B24681CA22869305E6
:104E340050052685EFC01FB22A84DC4403C707004F
:104E4400930720046317F700A2852685EFD0AF9659
:104E54002A8463840920A2864E8685452685EFC070
:104E64007FAF2A84DDAA9306F7F993F6F60F654619
:104E74006368D6069306F00603A90403631CD700EF
:104E840083C617001307E0066396E6008907DCC4AF
:104E940023A804022685993523A824032A8419E12A
:104EA400014459B7184193072003E31FF7F6584507
:104EB400DC54B7A5020014479D070843B697DCD419
:104EC400938545ACEFA0703125F12685EFD0CF83D3
:104ED400AA862286930570032685EFC0BFA7A1B7D3
:104EE400930640046319D70483C6170013073004DC
:104EF400639AE6048907DCC40149930A50042685B1
:104F0400EFD08F802A8681469305200526854A8A1C
:104F1400EFC05FA42A89630E0A002328AA00E301D4
:104F240009F8DC4403C70700E31B57FD8507DCC40D
:104F3400E5BD2A84EDB79306D7FB93F6F60F054635
:104F4400636CD60E03A98402630E090003270900CB
:104F540019E7D854832609013697D8D421A0E1460D
:104F6400E309D7FE03C70700930630046307D7029B
:104F740093064004E316D7F203C7170095461307B8
:104F840007FD1377F70FE3EDE6F0B7B602000A0763
:104F9400938646AE36971843028703C61700130755
:104FA400900481466315E6008507DCC48546DC442D
:104FB400114603C917001307F9FC1377F70FE361D0
:104FC400E6EE8907DCC481C62685EFF00FDC268572
:104FD40003AA8402EFC09F952A84E30305ECE3014E
:104FE4000AEC9D4723220500232405001CC1130954
:104FF40009FD23262401232844013DB5054A8907D8
:10500400DCC42685EFC09F922A84E30B05E8E309FC
:1050140009E8A14723220500232405001CC12326F7
:1050240045012328250109B50D4AD1BF114AC1BF45
:10503400154AF1B7094AE1B79306C0046319D702C8
:105044008507DCC42685EFC03FEC2A8411C526857C
:10505400EFC03FC0E31A05DC0144F25022856254DC
:10506400D2544259B259225A925A216182809306EB
:105074005005E313D7FE03C717009306C006630663
:10508400D70493064007E319D7FC93861700D4C4CA
:1050940083C61700E396E6E08907DCC42685EFC0E3
:1050A400DFB22A89E34E05DE2685EFC03F882A84D5
:1050B40011C5930790041CC123262501A2852685CA
:1050C400EFC0BFBFE31205D6E1BB93861700D4C47B
:1050D40083C61700E396E6DC8907DCC46C082685E2
:1050E40002CE553EF2472A84E39C07DA26855932DC
:1050F4002A89E30705DA19C008C82289DC441307A2
:10510400500483C60700E39DE6D88507DCC42685E2
:10511400EFC0BFAB2A8AE34505D82685EFC01F81BF
:105124002A84E30305D0930770041CC1D9B53971EF
:1051340022DC26DA4AD84ED652D456D25AD05ECE83
:1051440062CC06DE2A84AE84014C93094004130A1F
:105154005004930A900413094005130BD004930BD5
:105164003005584483470700639C3705834717007D
:10517400014693F7F70D6395270B63000C02014674
:10518400F2506254D2544259B259225A925A025B92
:10519400F24B624C3285216182802285EFF0EFBEB2
:1051A4002A8671DD5C4483C70700E38B47FDA9C4ED
:1051B400AA852AC62285EFC05FB0324615EDC1B775
:1051C400639F5701E30D0CFA2285EFE03FD2AA86D4
:1051D4005DD5628691452285EFC0CFF7D1B763983C
:1051E4002701E31E0CF82285EFC0BFA255BF6397C9
:1051F4006701050758C46286328CA5B763917703AB
:1052040085452285EFE09F952A8635D91C410547BF
:105214009387D7FA6376F700E3000CFE8DB7014657
:10522400E2852285E136ADBF5C459306C00403C721
:1052340007006314D7006FE09FAB93064005631427
:10524400D7006FC01F9D797122D406D626D24AD0CA
:105254004ECE130630072A846319C70C03C7170000
:1052640093062007631FD7081387270058C5185DC6
:1052740083C7270005C313075005636EF70613079A
:105284002004636EF700938707FD93F7F70F254714
:105294006371F7022285EFF04FAFAA8515A837078F
:1052A40004009387D7FB130717203357F700058BA8
:1052B40075D3FD571CDC81452285953D5C4413075D
:1052C4005004AA8583C607006394E60085075CC47E
:1052D40001462285213E2A865C4403C707009307C2
:1052E40090046310F708228532C6EFE03FC03246CF
:1052F400AA86914515A09387F7F993F7F70F6547A9
:1053040041BF930600076316D71289075CC5293F7E
:105314002A8681469305C00422852254B2509254B1
:105324000259F24945616FC0EFE213066006631D3E
:10533400C70403C6170013070007631CE60E138790
:10534400270058C503C727006315D7028D075CC51E
:1053540081442285EFC08FDD2A8601C599471CC18F
:1053640044C5B250225492540259F24932854561DF
:105374008280EFC09F859347F5FF1397170093042E
:10538400150061FB0146F1BF930607FD93F6F60F86
:105394002546637ED6009306F0066311D70283C6C2
:1053A40017001307E0066396E60889075CC5014603
:1053B40081452285253C2A8605F1E9B793069006A6
:1053C4006306D700930640076314D70403C6170087
:1053D4009306C006631FD60489075CC4930740077D
:1053E40001466316F7002285EFF02F9A2A865C4463
:1053F40032C603C7070059D783C71700C1D793051F
:1054040050042285B9263246AA869305100329B78B
:1054140093065007631FD70085075CC5EFC0DFAE56
:105424002AC62285EFE03FA43246AA869305F003FC
:10543400E5B52285EFF09F8A2A8929D51C411307F7
:1054440020036395E7088329C5005C54B7A50200CF
:1054540003A7890083A409009385C5CB7917BA975C
:105464005CD42685EFA0605709E92285EFF0EF911F
:10547400AA864A869305700345B583A9C90089475E
:105484006392F9080325C900EFC01FD8630E051401
:105494002285EFF08F8FB7A50200AA899385C59066
:1054A4002685EFA08053631C0516930550042285BE
:1054B4004D242A86B286930590034E862285EFC03A
:1054C4006FC9AA864A8693058003B9B513073003CA
:1054D4006384E70213074003E396E7EA5C44130797
:1054E400F00583C60700639DE60E85075CC493053B
:1054F40050042285B92CADBF8329C5008947E383B5
:10550400F9E88144894763C537076386090C8547F1
:10551400E39AF9E6F1C483C704001307000763861E
:10552400E7001307D006639FE70003C71400631B5B
:10553400F7005C441307F00583C607006395E60093
:1055440085075CC48149B7A502009385059026852B
:10555400EFA0A04859E52285EFE0FF90AA86E38AF0
:1055640009F02A86930590032285EFC0AFBE09B7E0
:105574008D47E399F9E0E38704E0B7A5020093853A
:1055840045912685EFA0604511C9B7A50200938512
:1055940045AD2685EFA0604463140510228569316A
:1055A400AA8422855131AA892285BD39E30C05DC00
:1055B400AA864E869305C0032285EFC0AFB9AA869A
:1055C40026869305B0032285EFC0CFB8AA864A8603
:1055D4009305A00391B381464A86930560032DBBCE
:1055E4008149228591319DBF03C70400930760065A
:1055F4006316F7002285EFF06FEE71BDB7A50200C8
:10560400938585AC2685EFA0403D19E5014681458B
:105614002285EFF0AFFD41B522853931ADBDB7A587
:1056240002009385C5AC2685EFA0203B09C9B7A528
:105634000200938505AD2685EFA0203A11ED5C4468
:105644009306700603C70700631BD70003C7170040
:1056540093073007631EF7002285F93699BD930638
:1056640030076317D70003C7170093072007DDB778
:10567400014681452285EFF06FF75C442A8603C713
:10568400070093079004E317F7E22AC62285EFE0A8
:10569400FF853246AA8691452285EFC0AFAB11BD86
:1056A40083C70400130760066396E7002285EFF0C2
:1056B400EFE2FDB51307E006E396E7CC83C71400D9
:1056C400130770076386E70013071006E39CE7CA15
:1056D4009305F0052285B528AA842285EFE0FFEA28
:1056E4005C4493065004AA8903C707006316D700D5
:1056F40085075CC401456DBD93060007631FD70091
:1057040083C6170013079006E39EE6C689075CC4A8
:10571400930550042285352861BD93069006E31352
:10572400D7C603C717009307C006E31DF7C4228535
:10573400E53CBDBD411122C426C206C604598547B5
:105744001CD92A84D534B24004D82244924441015D
:1057540082805C45011122CC06CE26CA4AC803C702
:10576400070002C62A84631FB7006244F240D24491
:10577400424985075CC5814601469305E0020561FF
:105784006FC04F9DAE841309C100228565372A86F8
:1057940001E90145F2406244D244424905618280F4
:1057A40081469305E0022285EFC0CF9A2320A90009
:1057B4006DD15C441309050103C70700E31797FC87
:1057C400850732455CC4F9B758455D71A2C4CAC0A7
:1057D4005AD886C6A6C24EDE52DC56DA5ED662D4EB
:1057E40066D26AD06ECE93761600034707002A8BE2
:1057F4002E843289BDC2F949754AF14AA284930BB9
:105804006005130CB004930C8007130DF006930D80
:10581400F0048326CB003AC6368536C4EFE00FAFDA
:10582400A24632471DED6310090A93076004631C06
:10583400F7086947F5466D46F9456545714863843F
:10584400840800401C40638DE712638DC712639483
:10585400A700232004013104DDB7ED49694AE54A74
:1058640071BF138616002326CB0093072007631607
:10587400F7020327CB02D68525072326EB028146B0
:1058840001465A85EFC00F8D88C00DCD0327CB008C
:105894009304C50003470700ADBF631977010327CD
:1058A400CB02D28525072326EB02D1BF63198701DA
:1058B4000327CB02CE8519072326EB02C9B703C7FA
:1058C400160015E38144B64026440649F259625A4B
:1058D400D25A425BB25B225C925C025DF24D268539
:1058E400964461618280138726002326EB0003C758
:1058F4001600631B97010327CB0281469305E0043E
:1059040045072326EB02ADBF6306A7019306F00407
:10591400631CD7028326CB02A5062326DB0281461D
:105924006311B7035A853935AA8649DD0327CB00AD
:105934001306500483450700E396C5F8050723269C
:10594400EB00930500052DBF93067007E31CD7F603
:105954000327CB025A8519072326EB02EFF08F9118
:10596400AA862DD10327CB001306500483450700D4
:10597400E39AC5F405072326EB009305100509B740
:1059840014C0D1BD0CC0C1BD0571232C811C2322C0
:10599400511D232E111C232A911C2328211D23264B
:1059A400311D2324411D2320611D232E711B232C13
:1059B400811B232A911B2328A11B2326B11B80139F
:1059C400834605002322B4E22320C4E21307F00532
:1059D400AA8A6399E600834615001307A005854447
:1059E4006382E606B79502002146938505715685C4
:1059F400EF906067814439E503C78A009306E002AB
:105A0400630AD7009306F0056306D70093064002A5
:105A1400631AD70203C79A00930640046307D700AA
:105A2400930690048144631FD70003C6AA0093061B
:105A3400F00581446318D600930690048D446313E3
:105A4400D7008944138BE4FF0547B3396001056A25
:105A54009387BA002326E4E693895904C54C130AB4
:105A64000A80130D8002854B130CF005938D1A00E8
:105A74002326F4E25685EF9090683387AA00232CFE
:105A8400E4E213171500232A54E3232E94E323207E
:105A940054E52326E4E4232404E4232CA4E4232A65
:105AA40004E4232E04E4232004E6232204E623242E
:105AB40004E6232804E6636AEA1A3307A5030A0501
:105AC4003D05232424E241993D07419B3301E140F4
:105AD4000A873301A1402322E4E4232824E46380D9
:105AE400740963E86B058327C4E203C7BA00232063
:105AF400F4E4630A87150325C4E2EF90506083251C
:105B0400C4E22A86130544E3EFB07FF42A86814673
:105B1400CE85130544E3EFB0FFE3832604E42A892A
:105B24003685EF90D05D832604E4AA962320D4E43E
:105B340031A0130544E3EFE05FA52A89832604E43A
:105B440083C6060099E2631409128326C4E67D57CE
:105B5400639BE610232604E6032184E221BF03C7E6
:105B64000A00630487010149D1BF83C61A002320B8
